{
  "contractName": "Counter",
  "abi": [
    {
      "inputs": [],
      "name": "count",
      "outputs": [
        {
          "internalType": "uint256",
          "name": "",
          "type": "uint256"
        }
      ],
      "stateMutability": "view",
      "type": "function"
    },
    {
      "inputs": [],
      "name": "get",
      "outputs": [
        {
          "internalType": "uint256",
          "name": "",
          "type": "uint256"
        }
      ],
      "stateMutability": "view",
      "type": "function"
    },
    {
      "inputs": [],
      "name": "inc",
      "outputs": [],
      "stateMutability": "nonpayable",
      "type": "function"
    },
    {
      "inputs": [],
      "name": "dec",
      "outputs": [],
      "stateMutability": "nonpayable",
      "type": "function"
    }
  ],
  "bytecode": "0x608060405234801561001057600080fd5b506101e7806100206000396000f3fe608060405234801561001057600080fd5b506004361061004c5760003560e01c806306661abd14610051578063371303c01461006f5780636d4ce63c14610079578063b3bcfa8214610097575b600080fd5b6100596100a1565b60405161006691906100ff565b60405180910390f35b6100776100a7565b005b6100816100c2565b60405161008e91906100ff565b60405180910390f35b61009f6100cb565b005b60005481565b60016000808282546100b99190610149565b92505081905550565b60008054905090565b60016000808282546100dd919061017d565b92505081905550565b6000819050919050565b6100f9816100e6565b82525050565b600060208201905061011460008301846100f0565b92915050565b7f4e487b7100000000000000000000000000000000000000000000000000000000600052601160045260246000fd5b6000610154826100e6565b915061015f836100e6565b92508282019050808211156101775761017661011a565b5b92915050565b6000610188826100e6565b9150610193836100e6565b92508282039050818111156101ab576101aa61011a565b5b9291505056fea26469706673582212209220a4f541ae46f9997b6b3feec70a48386a4ae23d172bbfc7e0d28295e80bda64736f6c63430008130033",
  "immutableReferences": {},
  "source": "// SPDX-License-Identifier: MIT\npragma solidity ^0.8.0;\n\ncontract Counter {\n    uint public count;\n\n    // Function to get the current count\n    function get() public view returns (uint) {\n        return count;\n    }\n\n    // Function to increment count by 1\n    function inc() public {\n        count += 1;\n    }\n\n    // Function to decrement count by 1\n    function dec() public {\n        // This function will fail if count = 0\n        count -= 1;\n    }\n}",
  "sourcePath": "/Users/0xdanieltam/Documents/GitHub/Upchain-Camp/W1/w1-truffle/contracts/Counter.sol",
  "compiler": {
    "name": "solc",
    "version": "0.8.19+commit.7dd6d404.Emscripten.clang"
  },
  "schemaVersion": "3.4.13",
  "updatedAt": "2023-03-13T03:11:42.011Z",
  "devdoc": {
    "kind": "dev",
    "methods": {},
    "version": 1
  },
  "userdoc": {
    "kind": "user",
    "methods": {},
    "version": 1
  }
}